:100000000C9499000C94CA000C94CA000C94CA0079
:100010000C94CA000C94CA000C94CA000C94CA0038
:100020000C94CA000C94CA000C94CA000C94CA0028
:100030000C94CA000C94CA000C94CA000C94CA0018
:100040000C94CA000C94CA000C94CA000C94CA0008
:100050000C94CA000C94CA000C94CA000C94CA00F8
:100060000C94CA000C94CA000C94CA000C94CA00E8
:100070000C94CA000C94CA000C94CA000C94CA00D8
:100080000C94CA000C94CA000C94CA000C94CA00C8
:100090000C94CA000C94CA000C94CA000C94CA00B8
:1000A0000C94CA000C94CA000C94CA000C94CA00A8
:1000B0000C94CA000C94CA000C94CA000C94CA0098
:1000C0000C94CA000C94CA000C94CA000C94CA0088
:1000D0000C94CA000C94CA000C94CA000C94CA0078
:1000E0000C94CA000C94DC050C94E00A0C94E50412
:1000F0000C947A040C9483050C94E80A0C942B0558
:100100000C94FA050C94AE060C94EE0A0C9453066B
:100110000C9424070C9448040C9495040C94E60A5F
:100120000C94C60A0C9465050C94E40A0C94E20A3B
:10013000240711241FBECFEFD1E2DEBFCDBF00E008
:100140000CBF12E0A0E0B2E0E6E0F4E200E00BBF9A
:1001500002C007900D92A434B107D9F722E0A4E4BD
:10016000B2E001C01D92AD3DB207E1F710E0C9E970
:10017000D0E000E006C021970109802FFE010E9417
:10018000CC10C839D10780E00807A9F70E943E0BC0
:100190000C9401120C9400006F927F928F929F92A8
:1001A000AF92BF92CF92DF92EF92FF920F931F9385
:1001B000CF93DF93C0E1D7E20F2EF4E6EF2EF2E00B
:1001C000FF2EF02D09E011E00F2EF0ECAF2EB12C38
:1001D000F02D0F2EF6EC8F2E912CF02D0F2EF8EC2B
:1001E000CF2ED12CF02D0F2EFEEC6F2E712CF02D7A
:1001F00080916302882311F180914402882331F0B9
:10020000F7018081833011F08C3051F4F701808147
:1002100090E02091BD023091BE02281739071CF4EE
:10022000109263020BC0880F991FFC01E154FD4F2F
:100230000190F081E02D1995811102C0219706C02F
:10024000813011F4259702C0CC52D140F801808151
:1002500081FF13C0F601808188230CF58091630231
:10026000F3019081E82FF0E0EC59FD4F9083873146
:10027000B0F48F5F8093630212C0F5018081882300
:1002800074F480916302F4019081E82FF0E0EC595E
:10029000FD4F9083873118F48F5F809363021C16A3
:1002A0001D060CF4A5CFDF91CF911F910F91FF9008
:1002B000EF90DF90CF90BF90AF909F908F907F9006
:1002C0006F9008951092C50030E13093C400E0ECC7
:1002D000F0E080818260808326E02093C20098E174
:1002E0009093C1001092CD003093CC00E8ECF0E088
:1002F0008081826080832093CA009093C900089512
:10030000EFEBF2E08AE794E09183808385E994E063
:100310009383828388E494E0958384838BE295E0E1
:10032000978386839187808785EE94E09387828781
:1003300085E695E09587848783E895E097878687AB
:100340008CED95E0918B808B8AEF95E0938B828B7F
:1003500083E596E0958B848B8EEA96E0978B868B6F
:1003600086EC9AE0918F808F8CE090E09093BE02B3
:100370008093BD02EFEAF2E080EE9AE093838283FD
:1003800082EE9AE09583848384EE9AE09783868355
:1003900086EE9AE09187808788EE9AE0938782873D
:1003A0008EEE9AE0958784870E9462010E94F50A8A
:1003B0000895CF93DF93382F20910901822F827007
:1003C00021FD0AC029C0019684179507D9F1813310
:1003D00025E7920768F038C0A32FB92F30E080E0FE
:1003E00090E0E8ECF0E0CEECD0E0AC014756554CA4
:1003F0002081222344F728813F5F2D933230A9F7D3
:1004000082E023C02F5F3F4F24173507F1F02133DF
:1004100095E7390768F019C0A32FB92F60E020E0F5
:1004200030E0E0ECF0E0C6ECD0E0A9014756554CD6
:10043000908199233CF798816F5F9D936230A9F773
:1004400082E003C080E001C080E0DF91CF91089599
:10045000CF93DF93382F20910901822F827021FDE5
:100460000AC029C0019684179507D9F1813325E781
:10047000920768F038C0A32FB92F30E080E090E0F9
:10048000E8ECF0E0CEECD0E0AC014756554C2081D2
:10049000222344F728813F5F2D933D30A9F78DE05B
:1004A00023C02F5F3F4F24173507F1F0213395E725
:1004B000390768F019C0A32FB92F60E020E030E0C1
:1004C000E0ECF0E0C6ECD0E0A9014756554C908135
:1004D00099233CF798816F5F9D936D30A9F78DE06C
:1004E00003C080E001C080E0DF91CF91089580914A
:1004F000090181FF13C0E8ECF0E0808185FFFDCFAA
:10050000809161028093CE00E8ECF0E0808185FF6D
:10051000FDCF809162028093CE000895E0ECF0E080
:10052000808185FFFDCF809161028093C600E0EC61
:10053000F0E0808185FFFDCF809162028093C6004C
:100540000895FC01DB0113968C911397808312961A
:100550008C911297818311968C91119782838C9143
:1005600083830895FC01208130E0322F222781818E
:10057000A901482BCA010895FC01208130E0322FE7
:1005800022278181A901482BCA010895E1E6F2E002
:100590008FEF808381830895442349F0E1E6F2E000
:1005A000208130E0322F22274181242B02C02FEFFF
:1005B0003FEF16161706D4F4FC01680F791FA8E068
:1005C00080E0919139274A2F582F33233CF4220F92
:1005D000331F91E2292790E1392702C0220F331FF0
:1005E0004150510991F7E617F70759F7E1E6F2E0B4
:1005F000308321830895CF93DF93EC0141E061E0E4
:1006000070E00E94CC02E1E6F2E080818983818182
:100610008A838091090181FF12C0DE01AE014D5F26
:100620005F4FE8ECF0E02EEC30E0908195FFFDCFDD
:100630008D91E9018883A417B507B9F711C0DE01D0
:10064000AE014D5F5F4FE0ECF0E026EC30E09081D2
:1006500095FFFDCF8D91E9018883A417B507B9F700
:10066000DF91CF910895CF93DF93EC0141E064E0F7
:1006700070E00E94CC02E1E6F2E080818C8381810F
:100680008D838091090181FF12C0DE01AE014A5FB6
:100690005F4FE8ECF0E02EEC30E0908195FFFDCF6D
:1006A0008D91E9018883A417B507B9F711C0DE0160
:1006B000AE014A5F5F4FE0ECF0E026EC30E0908165
:1006C00095FFFDCF8D91E9018883A417B507B9F790
:1006D000DF91CF910895FB012181FC012083FB0173
:1006E0002081FC012183FA012181FC012283FA018E
:1006F0002081FC0123830E94330308950E946B0331
:100700000895CF93DF93EC0141E06CE070E00E942C
:10071000CC02E1E6F2E080818C8781818D87809137
:10072000090181FF12C0DE01AE01425F5F4FE8ECBC
:10073000F0E02EEC30E0908195FFFDCF8D91E90146
:100740008883A417B507B9F711C0DE01AE01425F77
:100750005F4FE0ECF0E026EC30E0908195FFFDCFBC
:100760008D91E9018883A417B507B9F7DF91CF917F
:100770000895CF92DF92EF92FF920F931F93CF9342
:10078000DF93FC01E701DB0111968C9111978083C7
:100790008C918183DA0111968C91119782838C91CF
:1007A0008383D90111968C91119784838C918583D1
:1007B000D80111968C91119786838C9187838981BA
:1007C000808788818187D60111968C9111978287C5
:1007D0008C918387CF010E948103DF91CF911F917C
:1007E0000F91FF90EF90DF90CF900895EF92FF92DE
:1007F0000F931F93CF93DF93EC017A0189010E943D
:10080000A102B701CE0104960E94A102B801CE0157
:1008100008960E94A10241E06CE070E0CE010E94C7
:10082000CC02E1E6F2E080818C8781818D87809126
:10083000090181FF11C0DE019E01225F3F4FE8ECFC
:10084000F0E0CEECD0E0908195FFFDCF8D918883D4
:10085000A217B307C1F711C0DE01AE01425F5F4FBF
:10086000E0ECF0E026EC30E0908195FFFDCF8D913B
:10087000E9018883A417B507B9F7DF91CF911F91DC
:100880000F91FF90EF90089540E00E94CC020895F0
:1008900080916302833060F01092630261E070E047
:1008A00084E692E00E9444041092020281E00895DE
:1008B00080E008950F931F93CF93DF938C01EB019A
:1008C00084E692E00E944404F801EC0FFD1F908141
:1008D00080916102981308C081E0218190916202A9
:1008E000291719F080E001C080E0DF91CF911F91BE
:1008F0000F91089580916302833098F01092630203
:1009000061E070E084E692E00E945A04882359F086
:1009100080E48093640284E692E00E94FB0283E01C
:10092000089581E0089582E00895AF92BF92CF923A
:10093000DF92EF92FF920F931F93CF93DF938091FB
:1009400063028431A0F11092630262E170E084E6F8
:1009500092E00E945A04882361F1C4E6D2E0EF8459
:10096000F12CFE2CEE248E85E82AF0920102E09212
:100970000002C988D12CDC2CCC248889C82AD092CA
:100980006002C0925F02A12CB12C01E712E02DE6BB
:1009900032E049E652E065E672E087EA92E00E94C2
:1009A000A60F8883CE010E94FB0283E003C081E092
:1009B00001C082E0DF91CF911F910F91FF90EF90E6
:1009C000DF90CF90BF90AF900895CF92DF92EF92DB
:1009D000FF920F931F93CF93DF93809163028D302B
:1009E00060F1109263026BE070E084E692E00E9496
:1009F0005A04882321F1E4E6F2E0D185C2858C2FE8
:100A000083708330F1F087EA92E00E947E0FC090FD
:100A10005F02D0906002E0900002F090010209E6CF
:100A200012E025E632E04C2F6D2F8CE792E00E9419
:100A30001A0E0E94770283E005C081E003C082E0C5
:100A400001C082E0DF91CF911F910F91FF90EF9055
:100A5000DF90CF900895CF92DF92EF92FF920F93A5
:100A60001F9380916302833030F11092630261E042
:100A700070E084E692E00E945A048823F1F00E941C
:100A8000F40A0F2EF5E4CF2EF2E0DF2EF02D0F2E1C
:100A9000F7E4EF2EF2E0FF2EF02D09E412E02BE454
:100AA00032E04DE452E06FE472E084E692E00E94AE
:100AB000B90383E003C081E001C082E01F910F9180
:100AC000FF90EF90DF90CF90089580916302833084
:100AD000B0F01092630261E070E084E692E00E9460
:100AE0005A04882371F087EA92E00E947E0F8CE717
:100AF00092E00E94D80E0E94770283E0089581E080
:100B0000089582E00895809163028F3008F450C008
:100B1000109263026DE070E084E692E00E945A0455
:100B2000882309F447C0E4E6F2E02181828190E065
:100B3000A0E0B0E0DC0199278827B22B2481822B2A
:100B40002381922B8093590290935A02A0935B02C7
:100B5000B0935C022581868190E0A0E0B0E0DC01EA
:100B600099278827B22B2085822B2781922B80936F
:100B7000550290935602A0935702B09358022185D4
:100B8000828590E0A0E0B0E0DC0199278827B22BB5
:100B90002485822B2385922B8093510290935202BD
:100BA000A0935302B09354020E94770283E0089509
:100BB00081E0089582E00895809163028330B0F06F
:100BC0001092630261E070E084E692E00E945A04B1
:100BD000882371F021E532E045E552E069E572E0F5
:100BE00084E692E00E94F60383E0089581E0089590
:100BF00082E00895AF92BF92CF92DF92EF92FF9280
:100C00000F931F9380916302843008F440C01092C8
:100C1000630262E070E084E692E00E945A04882356
:100C2000C1F1809165028823B1F0AA24A394B12C6C
:100C3000C12CD12CE12CF12C00E010E020E030E0C0
:100C400040E050E060E070E087EA92E00E94A60F8A
:100C50008093640216C06894AA24A1F8B12CC12C18
:100C6000D12CE12CF12C00E010E020E030E040E05D
:100C700050E060E070E087EA92E00E94A60F809367
:100C8000640284E692E00E94FB0283E003C081E0FC
:100C900001C082E01F910F91FF90EF90DF90CF9005
:100CA000BF90AF900895AF92BF92CF92DF92EF9234
:100CB000FF920F931F9380916302843008F442C027
:100CC0001092630262E070E084E692E00E945A04AF
:100CD0008823D1F1809165028823C1F00F2EF3E0C3
:100CE000AF2EB12CF02DC12CD12CE12CF12C00E039
:100CF00010E020E030E040E050E060E070E087EAA3
:100D000092E00E94A60F8093640216C06894AA2401
:100D1000A2F8B12CC12CD12CE12CF12C00E010E078
:100D200020E030E040E050E060E070E087EA92E0F0
:100D30000E94A60F8093640284E692E00E94FB0268
:100D400083E003C081E001C082E01F910F91FF901A
:100D5000EF90DF90CF90BF90AF900895AF92BF9289
:100D6000CF92DF92EF92FF920F931F9380916302D5
:100D7000843008F443C01092630262E070E084E6BD
:100D800092E00E945A048823D9F180916502882359
:100D9000C1F00F2EF5E0AF2EB12CF02DC12CD12CCF
:100DA000E12CF12C00E010E020E030E040E050E0E9
:100DB00060E070E087EA92E00E94A60F80936402F0
:100DC00017C00F2EF6E0AF2EB12CF02DC12CD12C78
:100DD000E12CF12C00E010E020E030E040E050E0B9
:100DE00060E070E087EA92E00E94A60F80936402C0
:100DF00084E692E00E94FB0283E003C081E001C030
:100E000082E01F910F91FF90EF90DF90CF90BF9005
:100E1000AF9008950E945A048823A9F08091090197
:100E200081FF09C0E8ECF0E0808185FFFDCF81E023
:100E30008093CE000895E0ECF0E0808185FFFDCF47
:100E400081E08093C600089564E670E087EA92E04E
:100E50000E943B0F8CE792E00E94130E0895AF9220
:100E6000BF92CF92DF92EF92FF920F931F93CF9397
:100E7000DF937C01EBE0F1E08081806880838091EA
:100E80002B028EBDF70197012F5E3F4FA9E0B1E025
:100E900040EC50E006EC10E00F2EF8ECAF2EB12C39
:100EA000F02D6EEC70E091910DB407FEFDCF8EB584
:100EB0009EBD9C9191FF14C0E501888188231CF59B
:100EC00080916302EB019881C82ED12CE601CC59A8
:100ED000DD4F98838731B8F48F5F8093630213C02E
:100EE000EA01988199237CF480916302E80198815A
:100EF000C82ED12CE601CC59DD4F9883873118F4E8
:100F00008F5F80936302E217F30769F680913D02D9
:100F10000DB407FEFDCF9EB58EBD8091090181FF06
:100F200013C08091C80088230CF5809163029091D2
:100F3000CE00E82FF0E0EC59FD4F90838731B0F4FC
:100F40008F5F8093630212C08091C000882374F485
:100F5000809163029091C600E82FF0E0EC59FD4FBC
:100F60009083873118F48F5F809363020DB407FE7E
:100F7000FDCFEBE0F1E080818F77808380915D028F
:100F800080935E02F701848580935D02DF91CF91AB
:100F90001F910F91FF90EF90DF90CF90BF90AF9097
:100FA00008950F931F93CF93DF93EBE0F1E08081DF
:100FB0008068808380912B028EBD81E090E0A9E063
:100FC000B1E040EC50E006EC10E0C8ECD0E06EEC94
:100FD00070E0FC01E55DFD4F20810DB407FEFDCF03
:100FE0003EB52EBD2C9121FF12C0288122230CF585
:100FF00020916302FB013081E22FF0E0EC59FD4FBC
:1010000030832731B0F42F5F2093630212C0FA01BE
:101010002081222374F420916302F8013081E22FB1
:10102000F0E0EC59FD4F3083273118F42F5F209307
:10103000630201968E30910561F6809101020DB434
:1010400007FEFDCF9EB58EBD8091090181FF13C0C3
:101050008091C80088230CF5809163029091CE00A6
:10106000E82FF0E0EC59FD4F90838731B0F48F5FAB
:101070008093630212C08091C000882374F4809131
:1010800063029091C600E82FF0E0EC59FD4F908389
:10109000873118F48F5F80936302809100020DB452
:1010A00007FEFDCF9EB58EBD8091090181FF13C063
:1010B0008091C80088230CF5809163029091CE0046
:1010C000E82FF0E0EC59FD4F90838731B0F48F5F4B
:1010D0008093630212C08091C000882374F48091D1
:1010E00063029091C600E82FF0E0EC59FD4F908329
:1010F000873118F48F5F80936302809160020DB492
:1011000007FEFDCF9EB58EBD8091090181FF13C002
:101110008091C80088230CF5809163029091CE00E5
:10112000E82FF0E0EC59FD4F90838731B0F48F5FEA
:101130008093630212C08091C000882374F4809170
:1011400063029091C600E82FF0E0EC59FD4F9083C8
:10115000873118F48F5F8093630280915F020DB432
:1011600007FEFDCF9EB58EBD8091090181FF13C0A2
:101170008091C80088230CF5809163029091CE0085
:10118000E82FF0E0EC59FD4F90838731B0F48F5F8A
:101190008093630212C08091C000882374F4809110
:1011A00063029091C600E82FF0E0EC59FD4F908368
:1011B000873118F48F5F8093630280913D020DB4F4
:1011C00007FEFDCF9EB58EBD8091090181FF13C042
:1011D0008091C80088230CF5809163029091CE0025
:1011E000E82FF0E0EC59FD4F90838731B0F48F5F2A
:1011F0008093630212C08091C000882374F48091B0
:1012000063029091C600E82FF0E0EC59FD4F908307
:10121000873118F48F5F809363020DB407FEFDCF12
:10122000EBE0F1E080818F778083DF91CF911F9198
:101230000F91089588E208956F927F928F929F9206
:10124000AF92BF92CF92DF92EF92FF920F931F93D4
:10125000CF93DF9325E02A95F1F700009DB59EB569
:1012600021E030E0590102C0AA0CBB1C8A95E2F7CC
:101270008A2D809591E160E070E0E9E0F1E040ECDA
:1012800050E00F2EF6ECEF2EF12CF02D0F2EF8EC97
:101290006F2E712CF02D0EEC10E0ABE0B1E06894F5
:1012A000BB24B4F8208121FF15C0E301288122234B
:1012B0002CF5D0906302E801C8802D2D30E02C5928
:1012C0003D4FE901C882D6E1DD15C0F0D394D0923C
:1012D000630214C0EA012881222384F4D0906302BF
:1012E000E701C8802D2D30E02C593D4FE901C8821F
:1012F000D6E1DD1518F0D394D0926302C7E0DCE0AC
:101300002197F1F700C00000208121FF15C0E30103
:10131000288122232CF5D0906302E801C8802D2D6E
:1013200030E02C593D4FE901C882D6E1DD15C0F00F
:10133000D394D092630214C0EA012881222384F45A
:10134000D0906302E701C8802D2D30E02C593D4F2D
:10135000E901C882D6E1DD1518F0D394D09263027A
:101360002C9128232C93BEBC208121FF15C0E301C2
:10137000288122232CF5D0906302E801C8802D2D0E
:1013800030E02C593D4FE901C882D6E1DD15C0F0AF
:10139000D394D092630214C0EA012881222384F4FA
:1013A000D0906302E701C8802D2D30E02C593D4FCD
:1013B000E901C882D6E1DD1518F0D394D09263021A
:1013C0000DB407FEFDCF1EBC208121FF15C0E30137
:1013D000288122232CF5D0906302E801C8802D2DAE
:1013E00030E02C593D4FE901C882D6E1DD15C0F04F
:1013F000D394D092630214C0EA012881222384F49A
:10140000D0906302E701C8802D2D30E02C593D4F6C
:10141000E901C882D6E1DD1518F0D394D0926302B9
:101420000DB407FEFDCF2EB530E0322F22271EBCB3
:10143000D080D1FE15C0E301D880DD202CF590903E
:101440006302E8018880C92CD12CE601CC59DD4F1C
:101450008882D6E1D915C0F093949092630214C0AB
:10146000EA01D880DD2084F490906302E70188804F
:10147000C92CD12CE601CC59DD4F8882D6E1D91593
:1014800018F09394909263020DB407FEFDCFDEB482
:101490002D29D080D1FE15C0E301D880DD202CF5A8
:1014A00090906302E8018880C92CD12CE601CC59C8
:1014B000DD4F8882D6E1D915C0F0939490926302F3
:1014C00014C0EA01D880DD2084F490906302E70123
:1014D0008880C92CD12CE601CC59DD4F8882D6E119
:1014E000D91518F09394909263023695279532950A
:1014F00022952F7023273F702327620F731F2C9193
:101500002A292C93915009F0CDCECB0161E170E0F6
:101510000E94A410CB01DF91CF911F910F91FF90FA
:10152000EF90DF90CF90BF90AF909F908F907F9083
:101530006F90089581E080934402A198EBE0F1E080
:101540008081816080838AEB8A95F1F700C00E94D8
:101550007A1087E084B981E58CBD8AEB8A95F1F732
:1015600000C00E947A1082E00E941C0990935002F1
:1015700080934F020E94CC0084E00E941C0990934B
:101580004A02809349020E94CC00EDCF8091630211
:10159000833090F01092630261E070E084E692E0A4
:1015A0000E945A04882351F01092640284E692E06B
:1015B0000E94FB0283E0089581E0089582E008958F
:1015C0002E9A08952E980895A09A0895A0980895A7
:1015D000EBE0F1E08081806480830895EBE0F1E04E
:1015E00080818F7B808308950895CF93DF9382E07D
:1015F00083BB85E980930A0184E180930B0180918C
:10160000090185FF0E949A0ACBE0D1E088818160C0
:1016100088832AEB2A95F1F700C087E084B981E539
:101620008CBD8AEB8A95F1F700C082E00E941C090C
:101630009093500280934F0284E00E941C09909383
:101640004A028093490288818E7F88839FEF23EC32
:1016500089E0915020408040E1F700C0000088E020
:1016600084B984E68CBDA19A269A989AEAE0F1E0C2
:10167000808180648083DF91CF9108950E948001F2
:10168000C9E0D1E00F2EF0ECCF2ED12CF02D0F2E93
:10169000F6EC8F2E912CF02D0F2EF8ECEF2EF12C76
:1016A000F02D0F2EFEECAF2EB12CF02D8EB5853A1D
:1016B00009F08CC21EBC8DB58EB50DB407FEFDCFF2
:1016C0008EB590E0288121FF13C0D7012C912223F1
:1016D0000CF520916302F5013081E22FF0E0EC5926
:1016E000FD4F30832731B0F42F5F2093630212C087
:1016F000D6012C91222374F420916302F4013081ED
:10170000E22FF0E0EC59FD4F3083273118F42F5FC2
:10171000209363020DB407FEFDCF2EB5922B2881D6
:1017200021FF13C0D7012C9122230CF520916302D5
:10173000F5013081E22FF0E0EC59FD4F3083273185
:10174000B0F42F5F2093630212C0D6012C912223A4
:1017500074F420916302F4013081E22FF0E0EC593F
:10176000FD4F3083273118F42F5F209363020196D9
:101770009695879520915E0220FF17C040915902EF
:1017800050915A0260915B0270915C028A019B0148
:10179000080F191F211D311D0093590210935A0281
:1017A00020935B0230935C0216C040915902509125
:1017B0005A0260915B0270915C028A019B01081BD6
:1017C000190B210931090093590210935A022093F1
:1017D0005B0230935C020DB407FEFDCF8EB5282F5F
:1017E00030E0988191FF13C0D7018C9188230CF5CC
:1017F00080916302F5019081E82FF0E0EC59FD4FF4
:1018000090838731B0F48F5F8093630212C0D6015A
:101810008C91882374F480916302F4019081E82F05
:10182000F0E0EC59FD4F9083873118F48F5F80937F
:1018300063020DB407FEFDCF9EB58901192BC801C7
:10184000288121FF13C0D7012C9122230CF5209170
:101850006302F5013081E22FF0E0EC59FD4F308357
:101860002731B0F42F5F2093630212C0D6012C9170
:10187000222374F420916302F4013081E22FF0E01E
:10188000EC59FD4F3083273118F42F5F209363020A
:1018900001969695879520915E0221FF17C0409191
:1018A00055025091560260915702709158028A0178
:1018B0009B01080F191F211D311D00935502109324
:1018C0005602209357023093580216C04091550299
:1018D0005091560260915702709158028A019B0103
:1018E000081B190B21093109009355021093560268
:1018F00020935702309358020DB407FEFDCF8EB5EA
:10190000282F30E0988191FF13C0D7018C91882354
:101910000CF580916302F5019081E82FF0E0EC591D
:10192000FD4F90838731B0F48F5F8093630212C0C4
:10193000D6018C91882374F480916302F401908124
:10194000E82FF0E0EC59FD4F9083873118F48F5F5A
:10195000809363020DB407FEFDCF9EB58901192B5C
:10196000C801288121FF13C0D7012C9122230CF537
:1019700020916302F5013081E22FF0E0EC59FD4F38
:1019800030832731B0F42F5F2093630212C0D60159
:101990002C91222374F420916302F4013081E22F10
:1019A000F0E0EC59FD4F3083273118F42F5F20937E
:1019B000630201969695879520915E0222FF17C0DB
:1019C0004091510250915202609153027091540221
:1019D0008A019B01081B190B21093109009351024F
:1019E00010935202209353023093540216C0409138
:1019F00051025091520260915302709154028A0137
:101A00009B01080F191F211D311D009351021093D6
:101A1000520220935302309354020DB407FEFDCFBF
:101A20008EB58CE792E00E94FC0E882391F18CE742
:101A300092E00E94020F8823C1F08CE792E00E949E
:101A4000FF0E882339F08CE792E00E94FA0E0E9484
:101A50002F07B9C08CE792E00E94D40E8CE792E089
:101A60000E94FA0E0E942F07AEC08CE792E00E94FF
:101A7000FF0E882339F08CE792E00E94D80E0E9476
:101A8000D107A1C08CE792E00E94F80E0E942F07B8
:101A90009AC087EA92E00E94840F882329F00E946E
:101AA000E20A0E94D1078FC087EA92E00E94650F88
:101AB000DC0151962D913C915297232B19F40E94F1
:101AC0002F077AC0288121FF13C0F701208122232C
:101AD0000CF520916302D5013C91E22FF0E0EC5926
:101AE000FD4F30832731B0F42F5F2093630212C083
:101AF000F6012081222374F420916302D4013C91E9
:101B0000E22FF0E0EC59FD4F3083273118F42F5FBE
:101B100020936302DC015196ED91FC915297EE0FF8
:101B2000FF1FE155FD4F0190F081E02D199544C054
:101B300087EA92E00E94570F8C01FC01818992890B
:101B4000892B09F440C0888181FF13C0D7018C9193
:101B500088230CF580916302F5019081E82FF0E075
:101B6000EC59FD4F90838731B0F48F5F809363020F
:101B700012C0D6018C91882374F480916302F40121
:101B80009081E82FF0E0EC59FD4F9083873118F4F5
:101B90008F5F8093630287EA92E00E94650FD8010D
:101BA0005196ED91FC915297EE0FFF1FE155FD4FBD
:101BB0000190F081E02D199587EA92E00E94840F50
:101BC000882309F4B5CF0E94CC0070CD888181FFB5
:101BD00015C0F701808188230CF068CD80916302E5
:101BE000D5019C91E82FF0E0EC59FD4F90838731AF
:101BF00008F05CCD8F5F8093630258CDF601808141
:101C000088230CF053CD80916302D4019C91E82F7E
:101C1000F0E0EC59FD4F9083873108F047CD8F5F9E
:101C20008093630243CDFC01108211828FEF838386
:101C3000148208958F929F92AF92BF92CF92DF92BB
:101C4000EF92FF920F931F93CF93DF93EC01A62E99
:101C5000B42E49018C818130C9F4EB81F0E0CF01D1
:101C6000880F991F880F991FE80FF91FED5FFD4F2F
:101C7000A081B1812C9181E090E0028002C0880FA8
:101C8000991F0A94E2F7809582238C930E941A0987
:101C90009BEA899F812D11248695A81608F077C0AC
:101CA000AB8281E088832B2D23704B2D50E0B3FA5B
:101CB000882780F98C83B4FA882780F98A8330E0FA
:101CC00062E070E0621B730B8B2D847090E0062E37
:101CD00002C0959587950A94E2F7898BFB8AEA8A78
:101CE000DD8ACC8A409550954470552702C05595A1
:101CF00047956A95E2F74CA3FEA2EDA2D8A6CFA223
:101D00008CE07E0195E0E90EF11CD701E82F1D92D1
:101D1000EA95E9F7DE015896FD0111928A95E9F7F7
:101D2000220F331F220F331FF40140815181628142
:101D30007381F701E20FF31F408351836283738342
:101D4000F8014081518162817381FD01E20FF31F2F
:101D500040835183628373838C818823C1F0EB813C
:101D6000F0E0CF01880F991F880F991FE80FF91F26
:101D7000ED5FFD4FA081B1812C9181E090E0028068
:101D800002C0880F991F0A94E2F7822B8C93DF918F
:101D9000CF911F910F91FF90EF90DF90CF90BF9068
:101DA000AF909F908F90089521E0FC0121830895CA
:101DB000FC011082118284818130C9F4E381F0E05A
:101DC000CF01880F991F880F991FE80FF91FED5F4A
:101DD000FD4FA081B1812C9181E090E0028002C092
:101DE000880F991F0A94E2F7809582238C930895B7
:101DF0000596089548960895FC0180810895FC0198
:101E000081810895DC0112962C9112972223D1F042
:101E10001396EC91F0E0CF01880F991F880F991F5E
:101E2000E80FF91FED5FFD4FA081B1818C9190E02B
:101E3000028002C0959587950A94E2F7B1E08B275E
:101E400081700895DC011396EC91F0E0CF01880FCA
:101E5000991F880F991FE80FF91FED5FFD4FA081B3
:101E6000B1818C9190E0028002C0959587950A948B
:101E7000E2F7817008950F931F93CF93DF93EC01E6
:101E80008B0183E1282F269FC001279F900D1124ED
:101E90000E94D4109F838E831B821A821D821C8213
:101EA00019830883DF91CF911F910F910895FC0151
:101EB0002481358143E1429FC001439F900D11244D
:101EC00026813781820F931F0895FC01248135817B
:101ED00043E1429FC001439F900D112446815781E9
:101EE000840F951F2F5F3F4F35832483408151819D
:101EF0002417350710F0158214820895FC0113820F
:101F00001282158214820895FC0181E0428153817E
:101F1000248135814217530709F080E00895FC01C0
:101F20002281338184819581281B390B2F3F8FEFCC
:101F3000380751F0408151814150510981E0241707
:101F4000350719F080E0089581E008954F925F927F
:101F50006F927F928F929F92AF92BF92CF92DF92B9
:101F6000EF92FF920F931F93CF93DF93EC014B01FE
:101F70003A0129010E948F0F811180C0F401408134
:101F80005181628173818A819B8123E1289FF001C5
:101F9000299FF00D11248E819F81E80FF91F408346
:101FA000518362837383F3016080718082809380A8
:101FB0004A815B81249FC001259F900D1124EE81F1
:101FC000FF81E80FF91F6482758286829782F20191
:101FD0004081518162817381EA81FB812E9FC00122
:101FE0002F9F900D1124EE81FF81E80FF91F40878C
:101FF000518762877387F80130814A815B81249F12
:10200000C001259F900D1124EE81FF81E80FF91F7B
:1020100034874A815B81249FC001259F900D112444
:10202000EE81FF81E80FF91FF686E5864A815B8124
:10203000249FC001259F900D1124EE81FF81E80FA0
:10204000F91FD08AC7864A815B81249FC001259FE2
:10205000900D1124EE81FF81E80FF91FB28AA18A49
:102060008A819B8101969B838A832881398182178B
:10207000930730F01B821A8281E003C080E001C028
:1020800081E0DF91CF911F910F91FF90EF90DF9052
:10209000CF90BF90AF909F908F907F906F905F9008
:1020A0004F900895CF93DF93EC010E948F0F811121
:1020B00019C08A819B8143E1489F9001499F300D5F
:1020C00011244E815F81240F351F01969B838A83E3
:1020D000488159818417950740F01B821A82822F0C
:1020E000932F05C080E090E002C0822F932FDF91F4
:1020F000CF9108958091090181FF13C08091C8009C
:1021000088230CF5809163029091CE00E82FF0E0D7
:10211000EC59FD4F90838731B0F48F5F8093630259
:1021200008958091C000882374F480916302909197
:10213000C600E82FF0E0EC59FD4F9083873118F48A
:102140008F5F80936302089597FB072E16F4009427
:1021500007D077FD09D00E94B81007FC05D03EF4E7
:10216000909581959F4F0895709561957F4F089543
:10217000AA1BBB1B51E107C0AA1FBB1FA617B707AD
:1021800010F0A61BB70B881F991F5A95A9F78095C9
:102190009095BC01CD010895EE0FFF1F881F8BBFE6
:1021A0000790F691E02D1994CF93DF93823091053B
:1021B00010F482E090E0E091DB02F091DC0220E09C
:1021C00030E0C0E0D0E0309711F1408151814817F4
:1021D0005907C0F04817590761F48281938120970D
:1021E00019F09B838A832BC09093DC028093DB02DF
:1021F00026C02115310519F04217530718F49A012A
:10220000BE01DF01EF010280F381E02DDCCF21155B
:10221000310509F1281B390B2430310590F4129651
:102220008D919C9113976115710521F0FB019383AA
:10223000828304C09093DC028093DB02FD0132961E
:1022400044C0FD01E20FF31F8193919322503109A5
:102250002D933C933AC02091D9023091DA02232B7E
:1022600041F420914002309141023093DA022093F0
:10227000D90220913E0230913F022115310541F4EF
:102280002DB73EB74091420250914302241B350BBB
:10229000E091D902F091DA02E217F307A0F42E1BC5
:1022A0003F0B2817390778F0AC014E5F5F4F2417BA
:1022B000350748F04E0F5F1F5093DA024093D90262
:1022C0008193919302C0E0E0F0E0CF01DF91CF91E4
:1022D00008950F931F93CF93DF93009709F48CC059
:1022E000FC013297138212820091DB021091DC0212
:1022F0000115110581F420813181820F931F2091F6
:10230000D9023091DA022817390779F5F093DA0209
:10231000E093D90271C0D80140E050E0AE17BF078A
:1023200050F412962D913C911397AD012115310572
:1023300009F1D901F3CF9D01DA0133832283608152
:102340007181860F971F8217930769F4EC0128812A
:102350003981260F371F2E5F3F4F318320838A81BB
:102360009B8193838283452B29F4F093DC02E093D5
:10237000DB0242C01396FC93EE931297ED01499154
:1023800059919E01240F351FE217F30771F48081E4
:102390009181840F951F029611969C938E93828152
:1023A000938113969C938E931297E0E0F0E0D8010E
:1023B00012968D919C911397009719F0F8018C015A
:1023C000F6CF8D919C9198012E5F3F4F820F931F06
:1023D0002091D9023091DA022817390769F4309731
:1023E00029F41092DC021092DB0202C013821282E6
:1023F0001093DA020093D902DF91CF911F910F91D0
:062400000895F894FFCFDF
:1024060001E0012C00052D0032000533002C0003ED
:102416002D00000103010100010401010001050175
:102426000100010601012300042400A50242F00078
:102436000242F0000242F000E02F802F805A000096
:04244600DD02200093
:00000001FF
